:060000000A128A11922F82
:100F2400F001F101F201F30183010A128A119A2FEF
:100F3400831603178901880183160313880183121A
:100F440003138801A52F861FA82FA92FD22F0618B7
:100F5400AC2FAD2FB02F08108814CA2F061AB32F48
:100F6400B42FB72F08108814CA2F861ABA2FBB2F94
:100F7400BE2F08108814CA2F061BC12FC22FC52FDD
:100F840008108814CA2F08148810CA2FCA2FCA2F11
:100F9400861CCD2FCE2FA52F08148810A52FA52F82
:100FA4000618D52FD62FD92F08100815F32F061A97
:100FB400DC2FDD2FE02F08100815F32F861AE32FFE
:100FC400E42FE72F08100815F32F061BEA2FEB2F49
:100FD400EE2F08100815F32F08140811F32FF32F20
:100FE400F32F861CF62FF72FA52F08140811A52F11
:0C0FF400A52FA52FA52F0A128A11002896
:04400E00D5E0FFFFFB
:00000001FF
