:100000000A128A11382B00308A000408840A8207F9
:1000100000343134323433344134343435343634CA
:10002000423437343834393443342A343034233486
:1000300044340034443465346234653420345234FA
:10004000653469346E3469346334693461347234CC
:10005000003443346C3461347634653420344534B0
:10006000723472346F346E34653461340034493420
:100070006E346734723465347334653420344334F9
:100080006C34613476346534003454346F34643401
:100090006F34203465346E3420344F347234643419
:1000A00065346E34003445346E3420345334653452
:1000B0006E3473346F3472346534733400344534C1
:1000C0006C342034533469347334743465346D348F
:1000D000613400344234693465346E3476346534C6
:1000E0006E34693464346F340034443465347434A9
:1000F00065346334633469346F346E34003453349C
:1001000065346E3473346F347234203431340034D7
:10011000533465346E3473346F3472342034323473
:100120000034503465346C346934673472346F345D
:02013000003499
:1006020001300A128A1125240A128A110800640094
:100612008001840A0406031900340406092B7E08AB
:100622008A007F0882000A128A1110230A128A1194
:100632008000840A04087D0603190034FF0A0319A6
:10064200FE0A142B313432343334413434343534E9
:100652003634423437343834393443342A3430343B
:100662002334443432343034323431340034FD01F2
:1006720083133530840049300A128A1108230A1282
:100682008A113530FD000330FE002330FF00203098
:1006920084000A128A1114230A128A1183010A128F
:1006A2008A11112DF400662B740884000A128A1133
:1006B20003200A128A110A128A11F1230A128A11DC
:1006C2000130F3007308F407662B740884000A12E1
:1006D2008A1103200A128A110038031D712B722B12
:1006E200552B732B0800F500772B772B75088400A8
:1006F20083130008F200700884000130F007000341
:10070200FF3A7207F3007308F400F408031D8A2B02
:100712008B2B962B750884000130F5078008031D8A
:10072200932B942B772B962B962B7408F000F101C8
:10073200F01BF1039C2B0800F800F901023078024B
:100742000318A42BA52BB22B75080F398038F7009C
:100752007708F90079080A128A1125240A128A11E7
:10076200BF2B75080F39C038F7007708F9007908F0
:100772000A128A1125240A128A11BF2B76080A123C
:100782008A1153230A128A1108008316031388015F
:100792001430F4007930F300F30BCD2BF40BCD2B96
:1007A200D22B02300A128A1125240A128A11283009
:1007B2000A128A1125240A128A1101300A128A1198
:1007C20025240A128A110C300A128A1125240A12CF
:1007D2008A1106300A128A1125240A128A11080087
:1007E200F200F0307205F0008312031308080F398B
:1007F200700488008815881400008312031388107F
:10080200F930F0000000F00B032C072C00007208F6
:10081200F00004300310F00DFF3E031D0B2C831279
:10082200031308080F39700488008814000083122B
:10083200031388100430F100E430F000F00B1F2C99
:10084200F10B1F2C00000800F200F0307205F000DE
:100852008312031308080F39700488008811881462
:100862000000831203138810F930F0000000F00B2F
:10087200372C3B2C00007208F00004300310F00DFE
:10088200FF3E031D3F2C8312031308080F39700427
:100892008800881400008312031388100430F100CA
:1008A200E430F000F00B532CF10B532C0000080045
:1008B200F5016D3083120313CB004B08F6000030B4
:1008C2000A128A119D230A128A11C0300A128A1151
:1008D20025240A128A114B300A128A1153230A1252
:1008E2008A1183120313071087142430CD0083303A
:1008F200CC00F130CB00CB0B7C2CCC0B7C2CCD0B69
:100902007C2C83120313851C872C882CC92C071579
:100912000A128A1101230A128A11F5016D3083121B
:100922000313CB004B08F60000300A128A119D23F4
:100932000A128A11C0300A128A1125240A128A1157
:1009420077300A128A1153230A128A112430831231
:100952000313CD008330CC00F130CB00CB0BAF2C96
:10096200CC0BAF2CCD0BAF2C0A128A1101230A1229
:100972008A110A128A11D3250A128A1183120313C9
:10098200871007110A128A1101230A128A11102DE7
:10099200051DCC2CCD2C072D0715F5016D30CB0094
:1009A2004B08F60000300A128A119D230A128A119E
:1009B200C0300A128A1125240A128A1180300A12C2
:1009C2008A1153230A128A11243083120313CD0091
:1009D2008330CC00F130CB00CB0BED2CCC0BED2CCB
:1009E200CD0BED2C0A128A1101230A128A110A1266
:1009F2008A11D3250A128A11831203138710071151
:100A02000A128A1101230A128A11102D8710071166
:100A12000A128A1101230A128A11102D102D0800C0
:100A22006130831603138F0083160317890188012F
:100A32008316031388010130850087018312031393
:100A4200870185018316031381130A128A11C623B3
:100A52000A128A110A128A1101230A128A11F50155
:100A6200623083120313CE004E08F60000300A12E1
:100A72008A119D230A128A110B3083120313D000AC
:100A82002630CF006630CE00CE0B452DCF0B452D44
:100A9200D00B452D4C2D0A128A1101230A128A11FC
:100AA200522D0A128A1101230A128A11F5013D30D0
:100AB20083120313CE004E08F60000300A128A1188
:100AC2009D230A128A118312031307140B30D000DC
:100AD2002630CF006630CE00CE0B6D2DCF0B6D2DA4
:100AE200D00B6D2D742D0A128A1101230A128A115C
:100AF2008312031305187E2D7F2DB82DF501893041
:100B0200CE004E08F60002300A128A119D230A1204
:100B12008A11831203130710871407150630D000B9
:100B22001330CF00B130CE00CE0B952DCF0B952DCB
:100B3200D00B952D9C2D0A128A1101230A128A11BB
:100B42000A128A11D3250A128A11831203138710FB
:100B520007110630D0001330CF00B130CE00CE0BDB
:100B6200B02DCF0BB02DD00BB02DB72D522D851C33
:100B7200BB2DBC2DC22D0A128A1159240A128A11C8
:100B8200522D051DC52DC62D522D0A128A1159242A
:100B92000A128A11522D522D522D522D522D0A1205
:100BA2008A110028F5012F30FA007A08F600013088
:100BB2000A128A119D230A128A1183120313C90190
:100BC200CA014A08803AFF0080307F02031DEB2DE4
:100BD20004304902031CEE2DEF2DF12D252E252E7A
:100BE2000A128A11AE260A128A11FA007A088312B0
:100BF2000313BF00C0300A128A1125240A128A1177
:100C02002A300A128A11F1230A128A11831203135B
:100C12003F08FA004908443E84007A0883138000A2
:100C22000130C9070318CA0A0030CA074A08803AC5
:100C3200FF0080307F02031D202E04304902031C76
:100C4200232E242EF12D252E3030FA007A08F000C2
:100C520044300A128A1174230A128A11710870042C
:100C62000319342E352E5B2E0A128A1101230A1221
:100C72008A11F5012130FA007A08F60000300A12D2
:100C82008A119D230A128A110B30FC002630FB00C8
:100C92006630FA00FA0B4B2EFB0B4B2EFC0B4B2E45
:100CA200522E013083120313BC070318BD0A003011
:100CB200BD07632E013083120313BA070318BB0A60
:100CC2000030BB073B083A040319682E692E742EC4
:100CD200BA01BB01BC01BD01C401C501C601C70106
:100CE200C801AD2ED32D00303D02033003193C0262
:100CF200031C7C2E7D2ED32D7E2E0A128A110123F7
:100D02000A128A11F5011230FA007A08F600003050
:100D12000A128A119D230A128A11C0300A128A11FC
:100D220025240A128A1157300A128A1153230A12F1
:100D32008A110B30FC002630FB006630FA00FA0BF9
:100D4200A02EFB0BA02EFC0BA02EA72E7E2E7E2EFD
:100D5200D32DD32DD32DD32D0800F03083160313BA
:100D62008600F030831203138600B82EB82E0608D0
:100D7200F039F0007008FD007D08F03A031DC22E24
:100D8200C32EB82EC42E0608F039F0007008FD00FC
:100D92007D08F03A031DCE2ECF2EB82ED02E413034
:100DA200F100EE30F000F00BD42EF10BD42E000047
:100DB200F030831203138600DF2EDF2E0608F0398F
:100DC200F0007008FD007D08F03A0319E92EEA2EC2
:100DD200DF2EEB2E0608F039F0007008FD007D08CA
:100DE200F03A0319F52EF62EDF2EF72E1A30F10007
:100DF200F830F000F00BFB2EF10BFB2E00008312FB
:100E020003130608F039F0007008FD00082FFE30C9
:100E120086000608F039F0007008FD007D08F00039
:100E22007008C1007D08F03A0319182F192F292FD5
:100E3200C001212F0608F039F0007008C100212FEF
:100E42004108F03A031D262F272F1B2F972F972F8C
:100E5200FD3086000608F039F0007008FD007D08BC
:100E6200F0007008C1007D08F03A0319392F3A2FBB
:100E72004C2FC0010314C00D442F0608F039F000B6
:100E82007008C100442F4108F03A031D492F4A2F30
:100E92003E2F972F972FFB3086000608F039F0007F
:100EA2007008FD007D08F0007008C1007D08F03A6E
:100EB20003195C2F5D2F702F0230F0007008C00004
:100EC200682F0608F039F0007008C100682F410849
:100ED200F03A031D6D2F6E2F622F972F972FF73049
:100EE20086000608F039F0007008FD007D08F00069
:100EF2007008C1007D08F03A0319802F812F082F56
:100F02000330F0007008C0008C2F0608F039F000A2
:100F12007008C1008C2F4108F03A031D912F922FC7
:100F2200862F972F972F082F082F972F7D08E03AAB
:100F3200031D9C2F9D2FAE2F4008F000013003109F
:100F4200F00DFF3E031DA02F0310700D203E840004
:100F520083130008FF2FFF2F972F7D08D03A031D20
:100F6200B32FB42FC62F4008F00001300310F00D4C
:100F7200FF3E031DB72F0310700D013E203E84007B
:100F820083130008FF2FFF2F972F7D08B03A031D10
:100F9200CB2FCC2FDE2F4008F00001300310F00DD4
:100FA200FF3E031DCF2F0310700D023E203E840032
:100FB20083130008FF2FFF2F972F4008F000013006
:100FC2000310F00DFF3E031DE12F0310700D033ED1
:100FD200203E840083130008FF2FFF2F972F972FA7
:100FE200972F972F0230F2008630F1009930F000EF
:0E0FF200F00BF92FF10BF92FF20BF92F08007D
:04400E00D5E0FFFFFB
:00000001FF
