:060000000A128A11122809
:10000800FE00030EF1000408F2000A08F300831250
:1000180003137F08F4000A128A11E0280A128A11D1
:100028000F2983120313AF01AD1F1B281C28252895
:10003800AC09AD09AC0A0319AD0AAF010314AF0D41
:100048002528AB1F282829282F28AA09AB09AA0A7E
:100058000319AB0A2F282B082A040319342835283A
:100068006B28AE010314AE0D452801300310AA0D0C
:10007800AB0DFF3E031D3A280130F5007508AE07A9
:100088004528AB1F4828492839284B284B282B08D6
:100098002D02031D51282A082C02031C5428552818
:1000A8005C282A08AC022B08031CAD03AD025C28AF
:1000B80001300310AB0CAA0CFF3E031D5D28013074
:1000C800AE02031D682869284B286B286B282F0867
:1000D800031D6F287528AC09AD09AC0A0319AD0AD0
:1000E80075282D08AB01AB072C08AA01AA077C28A4
:1000F8000800831603130610831203138601831660
:10010800031789018B13831603138112811107309A
:1001180081043C3083120313810083160313880182
:100128008312031388018316031305168316031716
:1001380088010B118B160B178B17A2280A30831214
:100148000313AA000030AB007608B000B1013008F4
:10015800AC003108AD000A128A1115200A128A1162
:10016800831203132A08203E8400831300088800A2
:100178003430B100F130B000B00BC028B10BC0284A
:10018800C52883120313051ACA28CB28A22882304F
:10019800B100DD30B000B00BCF28B10BCF28D42888
:1001A800F6013C308312031381000B11A228A22808
:1001B800A2280A128A1112288B1EE328E42804298F
:1001C8000B1DE728E828042986090130F00070088B
:1001D800F7077708143A031DF228F328002901309D
:1001E800F0007008F6077608643A031DFC28FD281D
:1001F800FE28F601F70100293C3081000B11042983
:100208007408FF0073088A0072088400710E830066
:10021800FE0E7E0E0900F601F70183132A30FD0059
:100228000130FE003630FF00203084000A128A11A7
:1002380027210A128A1183010A128A117D287E0851
:100248008A007F0882000A128A1123210A128A1161
:100258008000840A04087D0603190034FF0A031984
:10026800FE0A27293F3406345B34F43466346D348F
:080278007D3407347F346F343C
:04400E00D5E0FFFFFB
:00000001FF
