:100000000A128A11052DFF1B0D2883137F188317F1
:100010000008840A0319FF0A080000308A00040857
:10002000840A820700343734383439342F34343476
:10003000353436342A343134323433342D340D34BB
:1000400030343D342B3400345034723475346534DC
:1000500062346134203478347834783478343F34FE
:0200600000346A
:1009D60001300A128A11FB250A128A1108007E08C4
:1009E6008A007F0882000A128A11F2240A128A11EA
:1009F6008000840A04087D0603190034FF0A0319DF
:100A0600FE0AF62CFC01FD01BF01C001C101C201B5
:100A1600C301C401C501C601C701C80183133F3024
:100A2600FD000530FE002330FF00203084000A124E
:100A36008A11F6240A128A1183010A128A112F2EAC
:100A46003734383439342F343434353436342A3460
:100A56003134323433342D34203430343D342B3475
:100A660068346F346C34613400340034003400343C
:100A76000034003432343034323431343034831676
:100A8600031388011430F4007930F300F30B492D79
:100A9600F40B492D4E2D02300A128A11FB250A123B
:100AA6008A1128300A128A11FB250A128A1101308E
:100AB6000A128A11FB250A128A110C300A128A11AF
:100AC600FB250A128A1106300A128A11FB250A1220
:100AD6008A110800872D740883120313FF00730818
:100AE60084000A128A1103200A128A110A128A1134
:100AF600C7250A128A110130F3070318F40AF50014
:100B0600F51F862DF403872D740883120313FF0047
:100B1600730884000A128A1103200A128A11003807
:100B2600031D962D972D6E2D982D0800FA00FB01BA
:100B360002307A020318A02DA12DAE2D76080F39AA
:100B46008038F9007908FB007B080A128A11FB2518
:100B56000A128A11BB2D76080F39C038F9007908B8
:100B6600FB007B080A128A11FB250A128A11BB2D8B
:100B76007808F401F4077708F301F3070A128A11DB
:100B86006D250A128A110800F200F0307205F00095
:100B96008312031308080F39700488008815881417
:100BA6000000831203138810F930F0000000F00BE8
:100BB600D92DDD2D00007208F00004300310F00D71
:100BC600FF3E031DE12D8312031308080F3970043D
:100BD6008800881400008312031388100430F10083
:100BE600E430F000F00BF52DF10BF52D00000800B8
:100BF600F200F0307205F0008312031308080F3973
:100C0600700488008811881400008312031388106A
:100C1600F930F0000000F00B0D2E112E00007208C6
:100C2600F00004300310F00DFF3E031D152E831255
:100C3600031308080F397004880088140000831213
:100C4600031388100430F100E430F000F00B292E75
:100C5600F10B292E000008006130831603138F0064
:100C660083160317890188018316031388018113EC
:100C76000A128A1142250A128A110A128A11EB24D3
:100C86000A128A11F6011230F7008030F80000309F
:100C96000A128A1199250A128A1106308312031341
:100CA600CB001330CA00B130C900C90B582ECA0B8D
:100CB600582ECB0B582E5F2E602E0A128A11EB246B
:100CC6000A128A11662E0A128A11AE260A128A1191
:100CD60083120313C9004908C00040080A128A118A
:100CE600C7250A128A11831203134008C9003F0858
:100CF600433E84004908831380000130C900490837
:100D0600BF0705303F02031C892E8A2E662E8B2EC6
:100D16003F08433E84008001F6014330F70000306F
:100D2600F80001300A128A1199250A128A11063032
:100D360083120313CB001330CA00B130C900C90BAC
:100D4600A22ECA0BA22ECB0BA22EA92E602E602E8F
:100D56000A128A110028F030831603138600F03039
:100D6600831203138600B82EB82E0608F039F00059
:100D76007008FC007C08F03A031DC22EC32EB82E64
:100D8600C42E0608F039F0007008FC007C08F03A22
:100D9600031DCE2ECF2EB82ED02E4130F100EE30D0
:100DA600F000F00BD42EF10BD42E0000F03083129D
:100DB60003138600DF2EDF2E0608F039F0007008D8
:100DC600FC007C08F03A0319E92EEA2EDF2EEB2E02
:100DD6000608F039F0007008FC007C08F03A0319A8
:100DE600F52EF62EDF2EF72E1A30F100F830F00031
:100DF600F00BFB2EF10BFB2E0000831203130608EB
:100E0600F039F0007008FC00082FFE308600060856
:100E1600F039F0007008FC007C08F0007008C20091
:100E26007C08F03A0319182F192F292FFD01212FBD
:100E36000608F039F0007008C200212F4208F03A87
:100E4600031D262F272F1B2F972F972FFD30860048
:100E56000608F039F0007008FC007C08F000700805
:100E6600C2007C08F03A0319392F3A2F4C2FFD01A6
:100E76000314FD0D442F0608F039F0007008C20077
:100E8600442F4208F03A031D492F4A2F3E2F972F31
:100E9600972FFB3086000608F039F0007008FC003A
:100EA6007C08F0007008C2007C08F03A03195C2F39
:100EB6005D2F702F0230F0007008FD00682F0608C5
:100EC600F039F0007008C200682F4208F03A031D9E
:100ED6006D2F6E2F622F972F972FF73086000608FB
:100EE600F039F0007008FC007C08F0007008C200C1
:100EF6007C08F03A0319802F812F082F0330F00069
:100F06007008FD008C2F0608F039F0007008C2004A
:100F16008C2F4208F03A031D912F922F862F972F80
:100F2600972F082F082F972F7C08E03A031D9C2F38
:100F36009D2FAE2F7D08F00001300310F00DFF3E0F
:100F4600031DA02F0310700D203E8400831300089C
:100F5600FF2FFF2F972F7C08D03A031DB32FB42FF6
:100F6600C62F7D08F00001300310F00DFF3E031D73
:100F7600B72F0310700D013E203E84008313000836
:100F8600FF2FFF2F972F7C08B03A031DCB2FCC2FB6
:100F9600DE2F7D08F00001300310F00DFF3E031D2B
:100FA600CF2F0310700D023E203E840083130008ED
:100FB600FF2FFF2F972F7D08F00001300310F00D53
:100FC600FF3E031DE12F0310700D033E203E8400FB
:100FD60083130008FF2FFF2F972F972F972F972FF9
:100FE6000230F2008630F1009930F000F00BF92F54
:0A0FF600F10BF92FF20BF92F0800A0
:04400E00D5E0FFFFFB
:00000001FF
